:020000040800F2
:1000000078060020350200083D0200083F02000883
:1000100041020008430200084502000800000000F9
:10002000000000000000000000000000470200087F
:1000300049020008000000004B0200084D020008C1
:100040004F0200084F0200084F0200084F0200084C
:100050004F0200084F0200084F0200084F0200083C
:100060004F0200084F0200084F0200084F0200082C
:100070004F0200084F0200084F0200084F0200081C
:100080004F0200084F0200084F0200080000000065
:100090000000000000000000000000004F02000807
:1000A0004F0200084F0200084F0200084F020008EC
:1000B000090600084F0200084F0200084F0200081E
:1000C0004F0200084F0200084F0200084F020008CC
:1000D0004F0200084F0200084F0200080000000015
:1000E000F10200084F0200084F0200080000000063
:1000F0000000000000000000000000004F020008A7
:10010000000000004F0200084F0200084F020008E4
:1001100000000000000000000000000000000000DF
:100120004F0200084F0200084F0200084F0200086B
:100130004F02000800000000000000000000000066
:100140000000000000000000000000004F02000856
:100150004F0200084F0200084F0200084F0200083B
:100160004F0200084F0200080000000000000000DD
:10017000000000000000000000000000000000007F
:10018000000000004F020008000000000000000016
:100190004F02000800F002F800F03CF80AA090E8D6
:1001A000000C82448344AAF10107DA4501D100F032
:1001B00031F8AFF2090EBAE80F0013F0010F18BFC3
:1001C000FB1A43F0010318474C0600006C060000C0
:1001D000103A24BF78C878C1FAD8520724BF30C873
:1001E00030C144BF04680C60704700000023002445
:1001F00000250026103A28BF78C1FBD8520728BF37
:1002000030C148BF0B6070471FB500F0FDFA1FBD3D
:1002100010B510BD00F031F81146FFF7F5FF00F002
:1002200059FA00F04FF803B4FFF7F2FF03BC00F0F7
:1002300057F800000948804709480047FEE7FEE7F5
:10024000FEE7FEE7FEE7FEE7FEE7FEE7FEE7FEE786
:1002500004480549054A064B70470000A5050008FB
:100260009501000878000020780600207802002020
:1002700078020020704770477047754600F02CF8F0
:10028000AE4605006946534620F00700854618B083
:1002900020B5FFF7DDFFBDE820404FF000064FF02E
:1002A00000074FF000084FF0000B21F00701AC46AB
:1002B000ACE8C009ACE8C009ACE8C009ACE8C009CA
:1002C0008D46704710B50446AFF300802046BDE868
:1002D0001040FFF7A8BF000000487047180000203A
:1002E00001491820ABBEFEE726000200704700005F
:1002F00010B54FF4806000F057F868B121480068ED
:10030000012804DD1F480068401E1E4908604FF4A4
:10031000806000F043F811E04FF4005000F044F822
:1003200060B1184800680A2804DA16480068401CC2
:10033000144908604FF4005000F030F8124800688B
:100340004FF47A51B0FBF1F00E490968B0FBF1F4BB
:1003500000EE104AF8EEC00A0C4890ED000AB8EE24
:10036000C00A20EE800ADFED0A0A80EE201ABCEEF9
:10037000C10A084880ED000A0068201A0649086092
:1003800010BD000000000020140000200400002028
:100390000000C842080000200C000020014908604D
:1003A00070470000143C014001460020034A1268D7
:1003B0000A400AB1012000E000207047143C0140CF
:1003C000002123498279002A3AD00A46126803683C
:1003D0009A430B461A600A1D126803689A430B1D64
:1003E0001A60027911440A6803681A430A60184ABD
:1003F0000832126803689A43154B08331A601A1DB5
:10040000126803689A43124B0C331A604279102A1F
:100410000ED11A1F126803681A430D4B08331A6075
:100420001A1D126803681A43094B0C331A600DE059
:100430000749427911440A6803681A430A6005E0D3
:10044000027911440A6803689A430A607047000001
:10045000003C0140F0B50A4600210023002400BF03
:100460003DE0012505FA01F3156805EA03049C4205
:1004700034D105684F000326BE40B54305601579A9
:100480004E00B5400668354305601579012D02D050
:100490001579022D16D185684F000326BE40B5435D
:1004A000856055794E00B54086683543856045685E
:1004B00001268E40B5434560456896798E40B6B2B8
:1004C00035434560C5684F000326BE40B543C5604F
:1004D000D5794E00B540C6683543C560491C102922
:1004E000BFD3F0BD0AB1018300E04183704700F043
:1004F0001F02012191404209920002F1E022C2F85C
:100500000011704729B1064A12680243044B1A6071
:1005100004E0034A12688243014B1A6070470000EE
:100520003038024029B1064A12680243044B1A606F
:1005300004E0034A12688243014B1A6070470000CE
:100540004038024029B1064A12680243044B1A603F
:1005500004E0034A12688243014B1A6070470000AE
:100560004438024030B500228B071C0F0F2303FADA
:1005700004F20B4B8C1053F824309343084C8D102D
:1005800044F8253023468C1053F824308C07240F70
:1005900000FA04F42343024C8D1044F8253030BD9A
:1005A000083801401448006840F47000124908609F
:1005B0001248006840F001001049086000200F490F
:1005C000083108600D4800680D4908400B49086073
:1005D0000C48091D0860081F006820F48020091FCE
:1005E0000860002005490C3108604FF000600249A6
:1005F000803908607047000088ED00E00038024054
:10060000FFFFF6FE1030002410B50221480700F06D
:1006100040F820B300214FF0804000F059F8104816
:10062000006830B10F4801684FF0804000F04EF88C
:1006300005E00D4801684FF0804000F047F8084899
:10064000006880F001000649086008460278202111
:100650000648FFF747FF0221480700F009F810BDE0
:10066000100000200C0000200800002000000240C4
:10067000CA430282704721B1028842F0010202801F
:1006800004E002884FF6FE731A40028070478182B0
:10069000704730B50246002000230024158A05EA81
:1006A0000103958905EA010413B10CB1012000E0B2
:1006B000002030BD1AB183890B43838102E0838916
:1006C0008B43838170470185828270474163704705
:1006D0004162704700F002F800BFFEE71FB501213C
:1006E0000520FFF70FFF01210846FFF71BFF202021
:1006F000029001208DF80C0002A93A48FFF7AAFEEB
:100700004FF41050029000208DF80C0001208DF85D
:100710000F0002A93448FFF79DFE0020334908600E
:100720000846027820212F48FFF7DCFE3048006899
:100730004FF47A51B0FBF1F02E490968B0FBF1F4A7
:1007400000EE104AF8EEC00A2B4890ED000AB8EE11
:10075000C00A20EE800ADFED290A80EE201ABCEEE6
:10076000C10A274880ED000A0068201A2549086060
:1007700000214FF08040FFF7ABFF012243F67F617D
:100780009007FFF7A0FF01218807FFF780FF0122F4
:1007900002214807FFF78EFF1A4801684FF080409A
:1007A000FFF794FF1C20FFF7A2FE01218807FFF747
:1007B00062FF01218803FFF7C5FE0F210220FFF72A
:1007C000D1FE4FF4105000900C208DF80500012050
:1007D0008DF806006846FFF7F3FD2820FFF787FE37
:1007E0001FBD000000000240000802401000002071
:1007F0001400002000000020040000200000C84277
:10080000080000200C0000204FF04070E1EE100ABC
:1008100070470000340800080000002018000000A5
:10082000D00100084C0800081800002060060000F5
:10083000EC0100080500000032000000000000008C
:0C08400000000000000000000024F40094
:0400000508000235B8
:00000001FF
